:020000040800F2
:1000000000000220D5270008192400081F2400083A
:10001000252400082B2400083124000800000000DB
:10002000000000000000000000000000372400086D
:100030004524000800000000532400086124000843
:10004000252800082528000825280008252800085C
:10005000252800082528000825280008252800084C
:10006000252800082528000825280008252800083C
:10007000252800082528000825280008252800082C
:100080002528000825280008252800080000000071
:10009000000000000000000000000000252800080B
:1000A00025280008712400082528000825280008B4
:1000B00025280008252800082528000825280008EC
:1000C00025280008252800082528000825280008DC
:1000D0002528000825280008252800080000000021
:1000E0002528000825280008252800080000000011
:1000F00000000000000000000000000025280008AB
:1001000000000000252800082528000825280008F0
:1001100000000000000000000000000000000000DF
:10012000252800082528000825280008252800087B
:10013000252800080000000000000000000000006A
:10014000000000000000000000000000252800085A
:10015000252800082528000825280008252800084B
:1001600025280008252800080000000000000000E5
:10017000000000000000000000000000000000007F
:10018000000000002528000800000000000000001A
:080190002528000825280008BD
:1001A00010B5054C237833B9044B13B10448AFF3B1
:1001B00000800123237010BDF0010020000000002A
:1001C000E87E000808B5034B1BB103490348AFF3B1
:1001D000008008BD00000000F4010020E87E000857
:1001E00001F0FF01102A2BDB10F0070F08D010F8E8
:1001F000013B013A8B422DD010F0070F42B3F6D1EC
:10020000F0B441EA012141EA014122F007047FF004
:1002100000070023F0E80256083C85EA010586EA5B
:10022000010685FA47F5A3FA87F586FA47F6A5FA97
:1002300087F68EB9EED1F0BC01F0FF0102F00702A3
:1002400032B110F8013B013A83EA010313B1F8D14E
:100250000020704701387047002D06BF354603382F
:10026000073815F0010F07D1013015F4807F02BF68
:10027000013015F4C03F0130F0BC0138704700BFB9
:10028000034613F8012B002AFBD1181A01387047D6
:1002900081F0004102E000BF83F0004330B54FEA37
:1002A00041044FEA430594EA050F08BF90EA020FA4
:1002B0001FBF54EA000C55EA020C7FEA645C7FEA37
:1002C000655C00F0E2804FEA5454D4EB5555B8BF5A
:1002D0006D420CDD2C4480EA020281EA030382EACB
:1002E000000083EA010180EA020281EA0303362D5D
:1002F00088BF30BD11F0004F4FEA01314FF4801C30
:100300004CEA113102D0404261EB410113F0004F41
:100310004FEA03334CEA133302D0524263EB4303F8
:1003200094EA050F00F0A780A4F10104D5F1200E96
:100330000DDB02FA0EFC22FA05F2801841F10001F1
:1003400003FA0EF2801843FA05F359410EE0A5F1C5
:1003500020050EF1200E012A03FA0EFC28BF4CF0F6
:10036000020C43FA05F3C01851EBE37101F00045AC
:1003700007D54FF0000EDCF1000C7EEB00006EEBB9
:100380000101B1F5801F1BD3B1F5001F0CD3490843
:100390005FEA30004FEA3C0C04F101044FEA44529A
:1003A00012F5800F80F09A80BCF1004F08BF5FEA21
:1003B000500C50F1000041EB045141EA050130BD01
:1003C0005FEA4C0C404141EB0101013C28BFB1F513
:1003D000801FE9D291F0000F04BF01460020B1FA5E
:1003E00081F308BF2033A3F10B03B3F120020CDA31
:1003F0000C3208DD02F1140CC2F10C0201FA0CF00F
:1004000021FA02F10CE002F11402D8BFC2F1200C73
:1004100001FA02F120FA0CFCDCBF41EA0C01904029
:10042000E41AA2BF01EB0451294330BD6FEA040472
:100430001F3C1CDA0C340EDC04F11404C4F120025D
:1004400020FA04F001FA02F340EA030021FA04F36F
:1004500045EA030130BDC4F10C04C4F1200220FAC6
:1004600002F001FA04F340EA0300294630BD21FA04
:1004700004F0294630BD94F0000F83F4801306BFCA
:1004800081F480110134013D4EE77FEA645C18BFBE
:100490007FEA655C29D094EA050F08BF90EA020F55
:1004A00005D054EA000C04BF1946104630BD91EA4D
:1004B000030F1EBF0021002030BD5FEA545C05D150
:1004C0004000494128BF41F0004130BD14F580048F
:1004D0003CBF01F5801130BD01F0004545F0FE4103
:1004E00041F470014FF0000030BD7FEA645C1ABF38
:1004F000194610467FEA655C1CBF0B46024650EA6F
:10050000013406BF52EA033591EA030F41F400219A
:1005100030BD00BF90F0000F04BF0021704730B520
:100520004FF4806404F132044FF000054FF00001F5
:1005300050E700BF90F0000F04BF0021704730B5B6
:100540004FF4806404F1320410F0004548BF40428B
:100550004FF000013EE700BF42004FEAE2014FEAE0
:1005600031014FEA02701FBF12F07F4393F07F4FBB
:1005700081F06051704732F07F4208BF704793F0BE
:100580007F4F04BF41F40021704730B54FF46074D1
:1005900001F0004521F000411CE700BF50EA0102D4
:1005A00008BF704730B54FF000050AE050EA01027D
:1005B00008BF704730B511F0004502D5404261EBED
:1005C00041014FF4806404F132045FEA915C3FF42E
:1005D000D8AE4FF003025FEADC0C18BF03325FEACB
:1005E000DC0C18BF033202EBDC02C2F1200300FA7C
:1005F00003FC20FA02F001FA03FE40EA0E0021FAA1
:1006000002F11444BDE600BF70B54FF0FF0C4CF48E
:10061000E06C1CEA11541DBF1CEA135594EA0C0F40
:1006200095EA0C0F00F0DEF82C4481EA030621EA7B
:100630004C5123EA4C5350EA013518BF52EA0335B6
:1006400041F4801143F4801338D0A0FB02CE4FF068
:100650000005E1FB02E506F00042E0FB03E54FF098
:100660000006E1FB03569CF0000F18BF4EF0010E90
:10067000A4F1FF04B6F5007F64F5407404D25FEA8C
:100680004E0E6D4146EB060642EAC62141EA55513F
:100690004FEAC52040EA5E504FEACE2EB4F1FD0C81
:1006A00088BFBCF5E06F1ED8BEF1004F08BF5FEAFF
:1006B000500E50F1000041EB045170BD06F00046B1
:1006C00046EA010140EA020081EA0301B4EB5C045E
:1006D000C2BFD4EB0C0541EA045170BD41F4801156
:1006E0004FF0000E013C00F3AB8014F1360FDEBF7B
:1006F000002001F0004170BDC4F10004203C35DA57
:100700000C341BDC04F11404C4F1200500FA05F3D9
:1007100020FA04F001FA05F240EA020001F000427A
:1007200021F0004110EBD37021FA04F642EB0601F0
:100730005EEA430E08BF20EAD37070BDC4F10C041A
:10074000C4F1200500FA04F320FA05F001FA04F2DE
:1007500040EA020001F0004110EBD37041F10001CA
:100760005EEA430E08BF20EAD37070BDC4F12005D5
:1007700000FA05F24EEA020E20FA04F301FA05F23D
:1007800043EA020321FA04F001F0004121FA04F2E5
:1007900020EA020000EBD3705EEA430E08BF20EAB5
:1007A000D37070BD94F0000F0FD101F000464000EF
:1007B00041EB010111F4801F08BF013CF7D041EA71
:1007C000060195F0000F18BF704703F00046520075
:1007D00043EB030313F4801F08BF013DF7D043EA46
:1007E0000603704794EA0C0F0CEA135518BF95EAFC
:1007F0000C0F0CD050EA410618BF52EA4306D1D183
:1008000081EA030101F000414FF0000070BD50EAA1
:10081000410606BF1046194652EA430619D094EA2B
:100820000C0F02D150EA013613D195EA0C0F05D115
:1008300052EA03361CBF104619460AD181EA030169
:1008400001F0004141F0FE4141F470014FF0000021
:1008500070BD41F0FE4141F4780170BD70B54FF0BC
:10086000FF0C4CF4E06C1CEA11541DBF1CEA13553C
:1008700094EA0C0F95EA0C0F00F0A7F8A4EB05041E
:1008800081EA030E52EA03354FEA013100F0888015
:100890004FEA03334FF0805545EA131343EA1263DE
:1008A0004FEA022245EA111545EA10654FEA002693
:1008B0000EF000419D4208BF964244F1FD0404F54C
:1008C000407402D25B084FEA3202B61A65EB0305A8
:1008D0005B084FEA32024FF480104FF4002CB6EB65
:1008E000020E75EB030E22BFB61A754640EA0C00E5
:1008F0005B084FEA3202B6EB020E75EB030E22BF25
:10090000B61A754640EA5C005B084FEA3202B6EB65
:10091000020E75EB030E22BFB61A754640EA9C0024
:100920005B084FEA3202B6EB020E75EB030E22BFF4
:10093000B61A754640EADC0055EA060E18D04FEAB2
:10094000051545EA16754FEA06164FEAC30343EA52
:1009500052734FEAC2025FEA1C1CC0D111F4801F1F
:100960000BD141EA00014FF000004FF0004CB6E718
:1009700011F4801F04BF01430020B4F1FD0C88BFB7
:10098000BCF5E06F3FF6AFAEB5EB030C04BFB6EBC2
:10099000020C5FEA500C50F1000041EB045170BDB5
:1009A0000EF0004E4EEA113114EB5C04C2BFD4EBE2
:1009B0000C0541EA045170BD41F480114FF0000E66
:1009C000013C90E645EA060E8DE60CEA135594EAE2
:1009D0000C0F08BF95EA0C0F3FF43BAF94EA0C0FE5
:1009E0000AD150EA01347FF434AF95EA0C0F7FF45A
:1009F00025AF104619462CE795EA0C0F06D152EAAE
:100A000003353FF4FDAE1046194622E750EA410691
:100A100018BF52EA43067FF4C5AE50EA41047FF4A2
:100A20000DAF52EA43057FF4EBAE12E74FF0FF3C07
:100A300006E000BF4FF0010C02E000BF4FF0010CD8
:100A40004DF804CD4FEA410C7FEA6C5C4FEA430C51
:100A500018BF7FEA6C5C1BD001B050EA410C0CBFA0
:100A600052EA430C91EA030F02BF90EA020F002002
:100A7000704710F1000F91EA030F58BF994208BF69
:100A800090422CBFD8176FEAE37040F00100704726
:100A90004FEA410C7FEA6C5C02D150EA013C07D17D
:100AA0004FEA430C7FEA6C5CD6D152EA033CD3D0C8
:100AB0005DF8040B704700BF8446104662468C46C2
:100AC0001946634600E000BF01B5FFF7B7FF0028F5
:100AD00048BF10F1000F01BD4DF808EDFFF7F4FF1E
:100AE0000CBF012000205DF808FB00BF4DF808EDA9
:100AF000FFF7EAFF34BF012000205DF808FB00BFCC
:100B00004DF808EDFFF7E0FF94BF012000205DF8ED
:100B100008FB00BF4DF808EDFFF7CEFF94BF0120A2
:100B200000205DF808FB00BF4DF808EDFFF7C4FF9B
:100B300034BF012000205DF808FB00BF4FEA410CE4
:100B40007FEA6C5C02D150EA013C0AD14FEA430CC7
:100B50007FEA6C5C02D152EA033C02D14FF0000004
:100B600070474FF0010070474FEA410212F5001242
:100B700015D211D56FF47873B3EB625212D94FEAE4
:100B8000C12343F0004343EA505311F0004F23FACE
:100B900002F018BF404270474FF00000704750EA23
:100BA000013005D111F0004008BF6FF000407047E0
:100BB0004FF00000704700BF53B94AB9002908BF81
:100BC00000281CBF4FF0FF314FF0FF3000F070B92C
:100BD000ADF1080C6DE904CE00F006F8DDF804E094
:100BE000DDE9022304B070472DE9F047089E0D4669
:100BF00004460F46002B4AD18A42944665D9B2FA80
:100C000082F343B102FA03FCC3F120029F4020FAB1
:100C100002F217439C404FEA1C4E1FFA8CF5B7FBBB
:100C2000FEF1220C0EFB117742EA074201FB05F0B0
:100C300090420AD91CEB020201F1FF3780F01C81BF
:100C4000904240F2198102396244121AA4B2B2FBF6
:100C5000FEF00EFB102244EA024400FB05F5A5421B
:100C60000AD91CEB040400F1FF3280F00781A54291
:100C700040F204816444023840EA0140641B0021D0
:100C80001EB1DC400023C6E90043BDE8F0878B427B
:100C900008D9002E00F0ED800021C6E900050846C5
:100CA000BDE8F087B3FA83F1002949D1AB4202D302
:100CB000824200F2F880841A65EB03020120174695
:100CC000002EE2D0C6E90047DFE702B9FFDEB2FA44
:100CD00082F3002B40F090808A1A4FEA1C471FFADB
:100CE0008CFE0121B2FBF7F507FB1520220C42EA2E
:100CF00000420EFB05F0904208D91CEB020205F100
:100D0000FF3802D2904200F2CB804546121AA4B2BC
:100D1000B2FBF7F007FB102244EA02440EFB00FE90
:100D2000A64508D91CEB040400F1FF3202D2A64507
:100D300000F2BB801046A4EB0E0440EA05409FE79A
:100D4000C1F120078B4022FA07FC4CEA030C05FA9C
:100D500001F420FA07F3FD404FEA1C492343B5FB99
:100D6000F9F81FFA8CFE09FB18551C0C44EA0544DF
:100D700008FB0EF5A54202FA01F200FA01F00BD9C8
:100D80001CEB040408F1FF3A80F08880A54240F291
:100D90008580A8F102086444641B9DB2B4FBF9F39A
:100DA00009FB134445EA044403FB0EFEA64508D99B
:100DB0001CEB040403F1FF356CD2A6456AD9023B53
:100DC000644443EA0843A3FB0295A4EB0E04AC423F
:100DD000C846AE4656D353D056B1B0EB080264EBCA
:100DE0000E0404FA07F7CA40CC401743C6E9007462
:100DF00018460021BDE8F087C3F1200102FA03FC88
:100E000020FA01F225FA01F19D402A434FEA1C47DE
:100E10001FFA8CFEB1FBF7F007FB1015110C41EA2D
:100E2000054100FB0EF58D4204FA03F408D91CEBD2
:100E3000010100F1FF382FD28D422DD902386144D3
:100E4000491B92B2B1FBF7F507FB151142EA0142CB
:100E500005FB0EF1914208D91CEB020205F1FF38A7
:100E600016D2914214D9023D6244521A45EA004119
:100E700038E73146304608E73946E6E61046FBE6F5
:100E80004845A9D2B9EB020865EB0C0E013BA3E77C
:100E90004546EAE72B4694E74046D1E7D0467BE754
:100EA000023D624432E708460AE76444023842E7FA
:100EB000704700BF80B584B000AF78600D4B5B68B1
:100EC000FB6002F0D3FB03460B4AA2FB03239B0CFF
:100ED0007A6802FB03F37B6000BF064B5A68FB682D
:100EE000D21A7B689A42F8D300BF00BF1037BD46C4
:100EF00080BD00BF001000E083DE1B4380B586B0DC
:100F000000AFF860B9601346FB801B4B1B681B4A9F
:100F100011880022184601F06BFF00BF40211848DD
:100F200001F04EFF0346002BF8D1164B18684FF620
:100F3000FF730122F96802F088FC0346FB75FB7D14
:100F4000002B0CD1BB68002B09D00E4B1868FA8817
:100F50004FF6FF73B96802F078FC0346FB75064B49
:100F60001B68064A11880122184601F041FFFB7DEB
:100F700018461837BD4680BD14020020100200201C
:100F8000000002400C02002080B586B000AFF8607F
:100F9000B9601346FB80184B1B68184A1188002261
:100FA000184601F025FF00BF4021154801F008FF59
:100FB0000346002BF8D1134B18684FF6FF7301223C
:100FC000F96802F042FC0346FB750E4B1868FA887C
:100FD0004FF6FF73B96802F07BFD0346FB75064BC5
:100FE0001B68064A11880122184601F001FFFB7DAB
:100FF00018461837BD4680BD14020020100200209C
:10100000000002400C02002080B582B000AF034611
:101010000A46FB711346BB71B91DFB1D0122184620
:10102000FFF76CFF00BF0837BD4680BD80B582B0BA
:1010300000AF03463960FB711346BB71FB7943F087
:101040004003DBB2FB71BB799AB2FB1D39681846CD
:10105000FFF754FF00BF0837BD4680BD80B582B0A2
:1010600000AF0346FB71FB1D002200211846FFF76D
:1010700045FF00BF0837BD4680BD80B584B000AFD6
:101080000346FB71FB7963F03F03DBB2FB7107F1B1
:101090000F01FB1D01221846FFF776FFFB7B184668
:1010A0001037BD4680BD80B584B000AF78600B4678
:1010B000FB703620FFF7D2FFFB7819463F20FFF781
:1010C000A3FF3A20FFF7D9FF0346FB73FB781A46CC
:1010D00079683F20FFF7AAFF3A20FFF7CEFF0346CB
:1010E000FB733520FFF7BAFF00BF1037BD4680BD48
:1010F00080B500AF29210020FFF786FF2E210120B7
:10110000FFF782FF06210220FFF77EFF4721032021
:10111000FFF77AFFD3210420FFF776FF9121052006
:10112000FFF772FFFF210620FFF76EFF0421072063
:10113000FFF76AFF05210820FFF766FF002109205D
:10114000FFF762FF00210A20FFF75EFF08210B2056
:10115000FFF75AFF00210C20FFF756FF10210D204A
:10116000FFF752FFB4210E20FFF74EFF2E210F2074
:10117000FFF74AFFCA211020FFF746FF8321112005
:10118000FFF742FF93211220FFF73EFF2221132099
:10119000FFF73AFFF8211420FFF736FF342115201E
:1011A000FFF732FF07211620FFF72EFF302117200F
:1011B000FFF72AFF18211820FFF726FF1621192014
:1011C000FFF722FF6C211A20FFF71EFF43211B208F
:1011D000FFF71AFF40211C20FFF716FF91211D2069
:1011E000FFF712FF87211E20FFF70EFF6B211F2044
:1011F000FFF70AFFF8212020FFF706FF56212120E4
:10120000FFF702FF10212220FFF7FEFEE921232035
:10121000FFF7FAFE2A212420FFF7F6FE0021252001
:10122000FFF7F2FE1F212620FFF7EEFE41212720C7
:10123000FFF7EAFE00212820FFF7E6FE59212920CA
:10124000FFF7E2FE7F212A20FFF7DEFE3F212B2061
:10125000FFF7DAFE81212C20FFF7D6FE35212D2065
:10126000FFF7D2FE09212E20FFF7CEFE00BF80BD82
:1012700080B500AF00F09AFA1E4B1B681E4A118819
:101280000122184601F0B4FD0120FFF713FE194BAF
:101290001B68194A11880022184601F0A9FD012097
:1012A000FFF708FE134B1B68134A118801221846EA
:1012B00001F09EFD2920FFF7FDFD0E4B1B680E4A35
:1012C00011880022184601F093FD00BF40210B4811
:1012D00001F076FD0346002BF8D13020FFF7BEFE6B
:1012E000044B1B68044A11880122184601F080FD56
:1012F00000BF80BD14020020100200200000024048
:1013000080B586B000AFF860B9601346FB801C4A18
:10131000FB6813601B4ABB6813601B4AFB88138081
:1013200000237B6107E03120FFF7A7FE0346FB7433
:101330007B6901337B617B69092BF4DD3A20FFF780
:101340008DFE3B20FFF78AFEFFF7D2FE08220F49F1
:101350003E20FFF76BFE07210320FFF755FE3620E6
:10136000FFF77CFE3A20FFF779FE3B20FFF776FE81
:101370003620FFF773FE00BF1837BD4680BD00BFA3
:101380000C020020140200201002002000000020A7
:1013900080B485B000AF78600B46FB700023FB7310
:1013A00022E07B685A1C7A601B78BB7308237B732E
:1013B00017E0FA7BBB7B5340DBB203F001033B73C6
:1013C000FB7B5B08FB733B7B002B04D0FB7B83F038
:1013D0007303DB43FB73BB7B5B08BB737B7B013B12
:1013E0007B737B7B002BE4D1FB785A1EFA70002BB9
:1013F000D7D1FB7B18461437BD465DF8047B704798
:1014000090B587B000AFF860B9607A60FB685B7830
:10141000002B01D1012344E0FB685B683A7A114656
:10142000184600F04FFE7B7A002B26D00023FB7578
:101430000CE0FB685868FB7D7A68D418FF2100F047
:1014400041FE03462370FB7D0133FB757B7AFA7DF9
:101450009A42EED37B7A013BDBB219467868FFF7FC
:1014600097FF03467B757B7A013B7A6813441B78B0
:101470007A7D9A4214D0012313E00023BB750BE060
:10148000FB685868BB7D7A6813441B78194600F0E6
:1014900019FEBB7D0133BB75BB7ABA7D9A42EFD38F
:1014A000002318461C37BD4690BD80B584B000AF00
:1014B00078607B685B680121184600F0E1FD034617
:1014C000FB7307E07B685B680121184600F0D8FDDC
:1014D0000346FB73FB7BFF2BF4D100BF00BF10372B
:1014E000BD4680BD80B584B000AF78600B46FB7010
:1014F00007F10A031C491A4609687868FFF780FF5C
:101500000346FB72FB78012B02D17868FFF7CDFF11
:10151000FB78022B22D10023FB607B681B7C7F2B96
:1015200014D07F2B16DC5F2B0CD05F2B12DC1F2B13
:1015300002D03F2B03D00DE05E23FB600BE0BC2309
:10154000FB6008E040F27713FB6004E040F2EE231A
:10155000FB6000E000BFF86801F0A8F9FB7A1846CC
:101560001037BD4680BD00BF1800002080B586B092
:1015700000AF786007F1080338491A4609687868AF
:10158000FFF73EFF03467B757B7D002B01D07B7D03
:1015900060E0BA7A7B68DA73FA7A7B689A733A7B8E
:1015A0007B681A747B7A1B021AB23B7A1BB2134314
:1015B0001BB2FB82FB8A23F4FF6323F007037B82C9
:1015C0007B8A002B02D0FB8A5B42FB827B681B7C00
:1015D0007F2B1DD07F2B20DC5F2B12D05F2B1CDCE0
:1015E0001F2B02D03F2B05D017E0FB8A03F4FF63CB
:1015F000FB8217E0FB8A23F003035B055B0DFB8294
:1016000010E0FB8A23F001035B055B0DFB8209E020
:10161000FB8AC3F30A03FB8204E0FB8AC3F30A03D9
:10162000FB8200BFFB8A07EE903AF8EE677A9FEDE7
:101630000C7A67EE877A7B68C3ED057A7B8A002B8C
:1016400007D07B68D3ED057AF1EE677A7B68C3ED4E
:10165000057A002318461837BD4680BD10000020CB
:101660000000803D80B584B000AF786039600F4BDA
:101670003A6819687868FFF7C3FE0346FB73FB7B83
:10168000002B01D0FB7B0CE03B681A787B68DA7397
:101690003B685A787B689A733B689A787B681A74BF
:1016A000FB7B18461037BD4680BD00BF14000020EC
:1016B00080B584B000AF78607B681B78002B01D1C7
:1016C000012312E07B685B68184600F031FD034699
:1016D000FB73FB7B002B04D17B6801225A70002333
:1016E00003E07B6800225A70012318461037BD467C
:1016F00080BD000080B586B000AF786007F10C03B4
:1017000012491A4609687868FFF77AFE0346BB75E6
:10171000BB7D002B01D0BB7D14E00023FB750DE0E9
:10172000FB7D5A1CFB7D18323A4412F80C1C7A6877
:1017300013440A461A72FB7D0133FB75FB7D052BB2
:10174000EED9002318461837BD4680BD080000209A
:1017500080B584B000AF786007F10E0308491A46DF
:1017600009687868FFF74CFE0346FB73FB7B002B90
:1017700001D0FB7B00E0002318461037BD4680BD3A
:101780000C00002080B483B000AF786039607B68C3
:1017900000225A707B683A685A607B6801221A708E
:1017A00000BF0C37BD465DF8047B704780B400AFC6
:1017B000144BDB68134A23F08073D360114BDB6852
:1017C000104A43F08073D3600F4B1B680E4A23F01E
:1017D000010313600C4B1B680B4A43F001031360B9
:1017E000094B00225A6000BF00BF00BF064B5B6878
:1017F000002B01D0002300E001231846BD465DF810
:10180000047B7047F0ED00E0001000E080B58AB086
:1018100000AF07F1140300221A605A609A60DA6080
:101820001A6100233B61364B1B6B354A43F00403BE
:101830001363334B1B6B03F004033B613B690023D1
:10184000FB602F4B1B6B2E4A43F0800313632C4B22
:101850001B6B03F08003FB60FB680023BB60284B1D
:101860001B6B274A43F001031363254B1B6B03F0EB
:101870000103BB60BB6800237B60214B1B6B204ACC
:1018800043F0020313631E4B1B6B03F002037B60E8
:101890007B68002202211B4801F0AAFA00220821DD
:1018A000194801F0A5FA02237B610123BB610023E3
:1018B000FB6101233B6207F114031946114801F053
:1018C000FBF801237B614FF40413BB610123FB612F
:1018D00007F1140319460C4801F0EEF808237B6168
:1018E0000123BB610023FB6101233B6207F1140369
:1018F0001946054801F0E0F800BF2837BD4680BD15
:1019000000380240000002400004024080B500AFF1
:1019100000220821024801F06BFA00BF80BD00BF21
:101920000004024080B500AF01220821024801F006
:101930005FFA00BF80BD00BF0004024080B592B0D6
:1019400000AF00F071FF00F0DBF8FFF75FFF00F081
:101950001DFC00F06FFE00F097FE5F495F48FFF747
:1019600011FF5E48FFF7A4FE5C48FFF7C3FE5B482B
:10197000FFF7FCFD594BDB7B87F83C30574B9B7BDB
:1019800087F83D307F2387F83E305448FFF790FEBC
:101990005248FFF7DDFE07F13C0319464F48FFF7B9
:1019A00061FEFFF765FC02224D494E48FFF7A8FC97
:1019B000072387F847304C4A07F1340392E80300C5
:1019C000186004331970494A07F12C0392E80300A8
:1019D000186004331970464A07F1200307CA03C38D
:1019E0001A803E48FFF764FE3C48FFF7B1FE012134
:1019F0003A48FFF777FD3948FFF75AFE3748FFF7B7
:101A0000A7FE3648FFF7B2FD47F679133B603B1D52
:101A100000221A605A609A60DA601A615A611A8369
:101A20002E4BD3ED057AFDEEE77A17EE903A3B6444
:101A30003B463A6C2F49184604F0EAF807F12002B9
:101A400007F134031146184604F04DF907F134024A
:101A50003B461146184604F046F907F12C023B4676
:101A60001146184604F03FF9394628231E22224821
:101A700002F054FF3120FFF700FB034687F83F30A8
:101A80003A20FFF7FAFA034687F83F303B20FFF78A
:101A9000E5FAFFF747FF3B461E211846FFF703FB19
:101AA00000BF0121154801F08BF90346002BF8D146
:101AB00000BF0121114801F083F90346002BF8D043
:101AC0003A20FFF7DAFA034687F83F30FFF71EFFA8
:101AD000642000F0EBFE84E7D4020020180200200E
:101AE0000000024030020020047F00080C7F000844
:101AF000147F0008007F00081C030020000402403F
:101B000080B594B000AF07F12003302200211846C1
:101B100004F0E1F807F10C0300221A605A609A60A1
:101B2000DA601A610023BB60274B1B6C264A43F026
:101B300080531364244B1B6C03F08053BB60BB6861
:101B400000237B60214B1B68204A43F44043136011
:101B50001E4B1B6803F440437B607B6801233B62A0
:101B60004FF480337B620223BB634FF48003FB633B
:101B700019233B64A8237B640223BB640423FB6416
:101B800007F12003184601F04DF90346002B01D060
:101B900000F030F80F23FB6002233B6100237B61E0
:101BA0004FF48053BB610023FB6107F10C0302215A
:101BB000184601F0AFFB0346002B01D000F01AF8E5
:101BC00000BF5037BD4680BD003802400070004065
:101BD00080B582B000AF78607B681B68044A93428E
:101BE00001D100F043FE00BF0837BD4680BD00BFF5
:101BF0000000014080B400AF72B600BFFEE70000F5
:101C00002DE9B04FC0B000AFC7F8F400C7F8F0102E
:101C10000023C7F8FC30D7F8F420D7F8F030536031
:101C2000D7F8F4301A688F4B9A4205D0D7F8F430C1
:101C30001A688D4B9A4204D101F038FDC7F8FC00B8
:101C400003E001F01FFDC7F8FC00D7F8F430DB69B2
:101C5000B3F5004F40F00C81D7F8FC300022C7F8F4
:101C6000E830C7F8EC20D7E93A4522462B469118D0
:101C7000B9655B41FB65D7E91623214612EB0108E4
:101C8000294643EB01094FF000024FF000034FEAF1
:101C9000C90343EA58734FEAC8029046994623465F
:101CA00018EB0303C7F8E0302B4649EB0303C7F8F2
:101CB000E430D7F8F4305B680022C7F8D830C7F8B2
:101CC000DC20D7E936120B46DB183B65134642EBA6
:101CD00003037B65D7E91423D7E93801FEF76CFFCE
:101CE00002460B46614BA3FB02235B091C01D7F89C
:101CF000FC300022C7F8D030C7F8D420D7E93489A7
:101D000042464B469118B9645B41FB64D7E9122304
:101D1000414612EB010A494643EB010B4FF000022A
:101D20004FF000034FEACB0343EA5A734FEACA026B
:101D300092469B4643461AEB0303C7F8C8304B460E
:101D40004BEB0303C7F8CC30D7F8F4305B680022C4
:101D5000C7F8C030C7F8C420D7E930120B46DB18EB
:101D60003B64134642EB03037B64D7E91023D7E9B6
:101D70003201FEF721FF02460B4611463B4BA3FB07
:101D800001235B09642202FB03F3CB1ADB0003F19E
:101D90003202364BA3FB02235B095B0003F4F873AA
:101DA0001C44D7F8FC300022C7F8B830C7F8BC2074
:101DB000D7E92E8942464B469118B9635B41FB63D4
:101DC000D7E90E2341465118396349464B417B639D
:101DD0004FF000024FF00003D7E90CAB5946CB009F
:101DE000514643EA51735146CA001046194603460C
:101DF00042469B18C7F8B0304B460A4642EB0303F5
:101E0000C7F8B430D7F8F4305B680022C7F8A830C0
:101E1000C7F8AC20D7E92A120B46DB18BB62134681
:101E200042EB0303FB62D7E90A23D7E92C01FEF753
:101E3000C3FE02460B460D4BA3FB02135B09642154
:101E400001FB03F3D31ADB003233084AA2FB03235E
:101E50005B0903F00702D7F8F4301B6822449A604C
:101E600006E100BF00100140001401401F85EB5146
:101E7000D7F8FC300022C7F8A030C7F8A420D7E973
:101E8000288942464B46911839625B417B62D7E90B
:101E9000082341465418494643EB01054FF0000220
:101EA0004FF00003EB0043EA5473E20014461D4672
:101EB0004346E318C7F898304B4645EB0303C7F891
:101EC0009C30D7F8F4305B680022C7F89030C7F830
:101ED00094204FF000024FF00003D7E92445294633
:101EE0008B00214643EA917321468A00D7E92601F7
:101EF000FEF762FE02460B46604BA3FB02235B0922
:101F00001C01D7F8FC300022C7F88830C7F88C20B5
:101F1000D7E9228942464B469118B9615B41FB6182
:101F2000D7E9062341465118396149464B417B6147
:101F30004FF000024FF00003D7E904AB5946CB0045
:101F4000514643EA51735146CA00104619460346AA
:101F500042469B18C7F880304B460A4642EB0303C3
:101F6000C7F88430D7F8F4305B680022BB67FA67A3
:101F70004FF000024FF00003D7E91E8949468B005D
:101F8000414643EA917341468A00D7E92001FEF7B2
:101F900013FE02460B461146384BA3FB01235B0997
:101FA000642202FB03F3CB1A1B013233334AA2FB38
:101FB00003235B0903F0F0031C44D7F8FC30002234
:101FC0003B677A67D7E91C8942464B469118B9604E
:101FD0005B41FB60D7E9022341465118396049460D
:101FE0004B417B604FF000024FF00003D7E900AB9C
:101FF0005946CB00514643EA51735146CA00104638
:102000001946034642469B18BB664B460A4642EBBE
:102010000303FB66D7F8F4305B6800223B667A6600
:102020004FF000024FF00003D7E9188949468B00B2
:10203000414643EA917341468A00D7E91A01FEF707
:10204000BBFD02460B460D4BA3FB02135B0964214B
:1020500001FB03F3D31A1B013233084AA2FB03230B
:102060005B0903F00F02D7F8F4301B6822449A6032
:1020700000BF07F58077BD46BDE8B08F1F85EB51E7
:1020800080B584B000AF78600B46FB70FF23FB7314
:102090000023BB73FB78002B01D10023FB7307F1F6
:1020A0000F010A230122786802F038FC07F10E01C3
:1020B0000A230122786802F0BCFCBB7B184610376B
:1020C000BD4680BD80B584B000AF78600B46FB7024
:1020D0000023FB730023BB7322E0FA78BB7B42FA38
:1020E00003F3DBB203F001033B7300237B733B7B01
:1020F00019467868FFF7C4FF0346FB72FB7AFF2B93
:1021000001D101237B737A7BBB7B02FA03F35AB2C2
:1021100097F90F3013435BB2FB73BB7B0133BB7387
:10212000BB7B072BD9D9FB7B18461037BD4680BD3A
:1021300080B584B000AF78600023FB73F023BB73DD
:1021400000237B734FF416517868FFF759FD07F1B0
:102150000E010A230122786802F0E0FB07F10D016D
:102160000A230122786802F064FC4FF4E1317868B8
:10217000FFF746FD7A7BBB7B9A4201D10123FB73BB
:10218000FB7B18461037BD4680BD000080B500AF10
:102190002E4B2F4A1A602D4B4FF482725A602B4BF4
:1021A00000229A60294B0022DA60284B00221A6133
:1021B000264B00225A61254B4FF400729A61234B43
:1021C0000022DA61214B00221A62204B00225A625F
:1021D0001E4B00229A621D4B0A22DA621B4801F054
:1021E000ABFA0346002B01D0FFF704FD174B184A4A
:1021F0001A60164B4FF482725A60144B00229A6098
:10220000124B0022DA60114B00221A610F4B0022A0
:102210005A610E4B4FF400729A610C4B0022DA6146
:102220000A4B00221A62094B00225A62074B002215
:102230009A62064B0722DA62044801F07DFA0346EF
:10224000002B01D0FFF7D6FC00BF80BD300200207C
:102250000030014080B58AB000AF786007F1140308
:1022600000221A605A609A60DA601A617B681B6803
:10227000194A93422BD100233B61184B5B6C174AE0
:1022800043F480535364154B5B6C03F480533B6100
:102290003B690023FB60114B1B6B104A43F00103A9
:1022A00013630E4B1B6B03F00103FB60FB68E02321
:1022B0007B610223BB610023FB6103233B62052397
:1022C0007B6207F114031946054800F0F5FB00BFD7
:1022D0002837BD4680BD00BF0030014000380240B5
:1022E0000000024080B483B000AF00237B60104B3D
:1022F0005B6C0F4A43F4804353640D4B5B6C03F4F7
:1023000080437B607B6800233B60094B1B6C084A61
:1023100043F080531364064B1B6C03F080533B6007
:102320003B6800BF0C37BD465DF8047B704700BFBB
:102330000038024080B58CB000AF78600023BB62EB
:1023400000237B620023BB602E4B5B6C2D4A43F065
:10235000010353642B4B5B6C03F00103BB60BB6850
:1023600007F10C0207F110031146184601F0B2F90B
:1023700001F09CF9B862BB6A234AA2FB03239B0CC1
:10238000013B7B62214B224A1A60204B40F2E7322C
:10239000DA601E4A7B6A53601C4B00221A611B4B99
:1023A00000229A60194B00229A61184801F09AFFA6
:1023B000034687F82F3097F82F30002B1BD1134896
:1023C00001F0EAFF034687F82F3097F82F30002BF3
:1023D00011D1192000F062FB7B680F2B08D8002276
:1023E0007968192000F03EFB0A4A7B68136002E01E
:1023F000012387F82F3097F82F3018463037BD4625
:1024000080BD00BF0038024083DE1B4388020020ED
:10241000000001402000002080B400AFFEE780B43F
:1024200000AFFEE780B400AFFEE780B400AFFEE788
:1024300080B400AFFEE780B400AF00BFBD465DF8DA
:10244000047B704780B400AF00BFBD465DF8047BDD
:10245000704780B400AF00BFBD465DF8047B704795
:1024600080B400AF00BFBD465DF8047B704700003C
:1024700080B500AF024801F0F1FF00BF80BD00BF92
:102480008802002080B400AF01231846BD465DF8E5
:10249000047B704780B582B000AF7860396003F08C
:1024A0007BFC034616221A604FF0FF3318460837AC
:1024B000BD4680BD80B582B000AF78604FF0FF317F
:1024C0007868FFF7E7FFFEE780B586B000AFF860F9
:1024D000B9607A6000237B610AE0AFF300800146B7
:1024E000BB685A1CBA60CAB21A707B6901337B613F
:1024F0007A697B689A42F0DB7B6818461837BD46DC
:1025000080BD80B586B000AFF860B9607A60002306
:102510007B6109E0BB685A1CBA601B781846AFF3B0
:1025200000807B6901337B617A697B689A42F1DBC9
:102530007B6818461837BD4680BD80B483B000AFB5
:1025400078604FF0FF3318460C37BD465DF8047BCA
:10255000704780B483B000AF786039603B684FF457
:1025600000525A60002318460C37BD465DF8047BC4
:10257000704780B483B000AF7860012318460C37F1
:10258000BD465DF8047B704780B485B000AFF8604D
:10259000B9607A60002318461437BD465DF8047BA5
:1025A0007047000080B586B000AF7860144A154BC4
:1025B000D31A7B617B693B61134B1B68002B02D1F3
:1025C000114B124A1A60104B1A687B6813443A691F
:1025D0009A4207D203F0E0FB03460C221A604FF048
:1025E000FF3309E0084B1B68FB60074B1A687B68E8
:1025F0001344054A1360FB6818461837BD4680BD72
:102600000000022000040000D0020020B8040020D6
:1026100080B400AF064BD3F88830054A43F470030A
:10262000C2F8883000BFBD465DF8047B704700BF2C
:1026300000ED00E080B500AF114B124A1A60104B5C
:102640004FF4E1325A600E4B00229A600C4B00228C
:10265000DA600B4B00221A61094B0C225A61084BBD
:1026600000229A61064B0022DA61054802F0FEF86A
:102670000346002B01D0FFF7BDFA00BF80BD00BFAD
:10268000D40200200010014080B500AF114B124A67
:102690001A60104B4FF4E1325A600E4B00229A60E0
:1026A0000C4B0022DA600B4B00221A61094B0C2202
:1026B0005A61084B00229A61064B0022DA610548F4
:1026C00002F084F80346002B01D0FFF793FA00BF15
:1026D00080BD00BF1C0300200044004080B58CB0CA
:1026E00000AF786007F11C0300221A605A609A60FC
:1026F000DA601A617B681B68324A93422DD100234D
:10270000BB61314B5B6C304A43F0100353642E4B7A
:102710005B6C03F01003BB61BB6900237B612A4B38
:102720001B6B294A43F001031363274B1B6B03F018
:1027300001037B617B694FF40073FB6112233B62F1
:1027400000237B620323BB620723FB6207F11C03A8
:1027500019461E4800F0B0F930E07B681B681C4A3F
:1027600093422BD100233B61174B1B6C164A43F459
:1027700000331364144B1B6C03F400333B613B695F
:102780000023FB60104B1B6B0F4A43F001031363E4
:102790000D4B1B6B03F00103FB60FB680C23FB611B
:1027A00002233B6200237B620323BB620723FB629D
:1027B00007F11C031946054800F07EF900BF3037C9
:1027C000BD4680BD001001400038024000000240BC
:1027D00000440040DFF834D0FFF71AFF0C480D49E1
:1027E0000D4A002302E0D458C4500433C4188C426C
:1027F000F9D30A4A0A4C002301E013600432A242D2
:10280000FBD303F0CFFAFFF799F8704700000220DE
:1028100000000020F0010020BC820008F001002030
:10282000B4040020FEE7000080B500AF0E4B1B682B
:102830000D4A43F4007313600B4B1B680A4A43F4C0
:1028400080631360084B1B68074A43F4807313606E
:10285000032000F0FCF80F20FFF76CFDFFF742FDAE
:102860000023184680BD00BF003C024080B400AF8A
:10287000064B1B781A46064B1B681344044A136028
:1028800000BFBD465DF8047B704700BF24000020F8
:102890006403002080B400AF034B1B681846BD469C
:1028A0005DF8047B704700BF6403002080B584B0EE
:1028B00000AF7860FFF7EEFFB8607B68FB60FB68F5
:1028C000B3F1FF3F05D00A4B1B781A46FB6813444F
:1028D000FB6000BFFFF7DEFF0246BB68D31AFA6851
:1028E0009A42F7D800BF00BF1037BD4680BD00BF79
:1028F0002400002080B485B000AF78607B6803F0CE
:102900000703FB600C4BDB68BB60BA684FF6FF0344
:102910001340BB60FB681A02BB68134343F0BF63FC
:1029200043F40033BB60044ABB68D36000BF143774
:10293000BD465DF8047B704700ED00E080B400AF59
:10294000044BDB681B0A03F007031846BD465DF81D
:10295000047B704700ED00E080B483B000AF034615
:10296000FB7197F90730002B0BDBFB7903F01F029B
:10297000074997F907305B09012000FA02F241F894
:10298000232000BF0C37BD465DF8047B704700BFB5
:1029900000E100E080B483B000AF03463960FB7112
:1029A00097F90730002B0ADB3B68DAB20C4997F93C
:1029B00007301201D2B20B4483F800230AE03B68CF
:1029C000DAB20849FB7903F00F03043B1201D2B2DB
:1029D0000B441A7600BF0C37BD465DF8047B704788
:1029E00000E100E000ED00E080B489B000AFF860E5
:1029F000B9607A60FB6803F00703FB61FB69C3F110
:102A00000703042B28BF0423BB61FB690433062B97
:102A100002D9FB69033B00E000237B614FF0FF32EA
:102A2000BB6902FA03F3DA43BB681A407B699A4038
:102A30004FF0FF317B6901FA03F3D9437B680B4008
:102A4000134318462437BD465DF8047B704780B5B4
:102A500082B000AF78607868FFF74CFF00BF08379E
:102A6000BD4680BD80B586B000AF0346B9607A60D0
:102A7000FB7300237B61FFF761FF78617A68B968B7
:102A80007869FFF7B1FF024697F90F3011461846F3
:102A9000FFF780FF00BF1837BD4680BD80B582B00C
:102AA00000AF0346FB7197F907301846FFF754FF54
:102AB00000BF0837BD4680BD80B489B000AF7860E4
:102AC000396000237B6100233B610023BB6100234D
:102AD000FB6159E10122FB6902FA03F37B613B6868
:102AE0001B687A6913403B613A697B699A4240F0FE
:102AF00048813B685B6803F00303012B05D03B680A
:102B00005B6803F00303022B30D17B689B68BB61D9
:102B1000FB695B00032202FA03F3DB43BA6913404B
:102B2000BB613B68DA68FB695B0002FA03F3BA69D0
:102B30001343BB617B68BA699A607B685B68BB6161
:102B40000122FB6902FA03F3DB43BA691340BB615C
:102B50003B685B681B0903F00102FB6902FA03F39F
:102B6000BA691343BB617B68BA695A603B685B68AA
:102B700003F00303032B17D07B68DB68BB61FB69A1
:102B80005B00032202FA03F3DB43BA691340BB6123
:102B90003B689A68FB695B0002FA03F3BA69134366
:102BA000BB617B68BA69DA603B685B6803F003036A
:102BB000022B23D1FB69DA087B68083253F82230F4
:102BC000BB61FB6903F007039B000F2202FA03F3CA
:102BD000DB43BA691340BB613B681A69FB6903F0C8
:102BE00007039B0002FA03F3BA691343BB61FB6955
:102BF000DA087B680832B96943F822107B681B68E1
:102C0000BB61FB695B00032202FA03F3DB43BA6991
:102C10001340BB613B685B6803F00302FB695B0028
:102C200002FA03F3BA691343BB617B68BA691A609D
:102C30003B685B6803F44033002B00F0A280002364
:102C4000FB60574B5B6C564A43F480435364544BD0
:102C50005B6C03F48043FB60FB68524AFB699B0892
:102C6000023352F82330BB61FB6903F003039B007E
:102C70000F2202FA03F3DB43BA691340BB617B689E
:102C8000494A934219D07B68484A934213D07B68E3
:102C9000474A93420DD07B68464A934207D07B68EF
:102CA000454A934201D1042308E0072306E00323A9
:102CB00004E0022302E0012300E00023FA6902F0AD
:102CC000030292009340BA691343BB613549FB6923
:102CD0009B080233BA6941F82320384B9B68BB61DB
:102CE0003B69DB43BA691340BB613B685B6803F433
:102CF0008013002B03D0BA693B691343BB612F4A91
:102D0000BB6993602D4BDB68BB613B69DB43BA69F0
:102D10001340BB613B685B6803F40013002B03D0D6
:102D2000BA693B691343BB61244ABB69D360234B37
:102D30005B68BB613B69DB43BA691340BB613B68BD
:102D40005B6803F40033002B03D0BA693B6913437B
:102D5000BB611A4ABB695360184B1B68BB613B6976
:102D6000DB43BA691340BB613B685B6803F48033A3
:102D7000002B03D0BA693B691343BB610F4ABB699F
:102D80001360FB690133FB61FB690F2B7FF6A2AE79
:102D900000BF00BF2437BD465DF8047B704700BF0D
:102DA00000380240003801400000024000040240A8
:102DB00000080240000C024000100240003C0140AC
:102DC00080B485B000AF78600B467B807B681A6961
:102DD0007B881340002B02D00123FB7301E000230A
:102DE000FB73FB7B18461437BD465DF8047B7047C8
:102DF00080B483B000AF78600B467B8013467B7055
:102E00007B78002B03D07A887B689A6103E07B880B
:102E10001A047B689A6100BF0C37BD465DF8047BDD
:102E20007047000080B586B000AF78607B68002BEB
:102E300001D1012367E27B681B6803F00103002BCB
:102E400075D0884B9B6803F00C03042B0CD0854B8A
:102E50009B6803F00C03082B12D1824B5B6803F4D0
:102E60008003B3F5800F0BD17E4B1B6803F4003356
:102E7000002B5BD07B685B68002B57D1012342E2BB
:102E80007B685B68B3F5803F06D1764B1B68754A5B
:102E900043F4803313601DE07B685B68B3F5A02FBB
:102EA0000CD1704B1B686F4A43F4802313606D4B49
:102EB0001B686C4A43F4803313600BE0694B1B685A
:102EC000684A23F480331360664B1B68654A23F419
:102ED000802313607B685B68002B13D0FFF7DAFC5C
:102EE000386108E0FFF7D6FC02463B69D31A642B31
:102EF00001D9032307E25B4B1B6803F40033002B6B
:102F0000F0D014E0FFF7C6FC386108E0FFF7C2FC20
:102F100002463B69D31A642B01D90323F3E1514BD9
:102F20001B6803F40033002BF0D100E000BF7B6886
:102F30001B6803F00203002B63D04A4B9B6803F02D
:102F40000C03002B0BD0474B9B6803F00C03082BA2
:102F50001CD1444B5B6803F48003002B16D1414B1A
:102F60001B6803F00203002B05D07B68DB68012B94
:102F700001D00123C7E13B4B1B6823F0F8027B68BB
:102F80001B69DB00374913430B603AE07B68DB6861
:102F9000002B20D0344B01221A60FFF77BFC3861F4
:102FA00008E0FFF777FC02463B69D31A022B01D9F0
:102FB0000323A8E12B4B1B6803F00203002BF0D086
:102FC000284B1B6823F0F8027B681B69DB0025494E
:102FD00013430B6015E0244B00221A60FFF75AFCE4
:102FE000386108E0FFF756FC02463B69D31A022B12
:102FF00001D9032387E11B4B1B6803F00203002B5D
:10300000F0D17B681B6803F00803002B36D07B6887
:103010005B69002B16D0154B01221A60FFF73AFCB2
:10302000386108E0FFF736FC02463B69D31A022BF1
:1030300001D9032367E10B4B5B6F03F00203002B05
:10304000F0D01BE0094B00221A60FFF723FC386127
:103050000EE0FFF71FFC02463B69D31A022B07D98B
:10306000032350E10038024000004742800E4742EF
:10307000884B5B6F03F00203002BEAD17B681B686F
:1030800003F00403002B00F097800023FB75814BB5
:103090001B6C03F08053002B0FD10023BB607D4BD2
:1030A0001B6C7C4A43F0805313647A4B1B6C03F017
:1030B0008053BB60BB680123FB75774B1B6803F42F
:1030C0008073002B18D1744B1B68734A43F48073D0
:1030D0001360FFF7DFFB386108E0FFF7DBFB024618
:1030E0003B69D31A022B01D903230CE16A4B1B68FD
:1030F00003F48073002BF0D07B689B68012B06D112
:10310000644B1B6F634A43F0010313671CE07B6849
:103110009B68052B0CD15F4B1B6F5E4A43F0040389
:1031200013675C4B1B6F5B4A43F0010313670BE0B3
:10313000584B1B6F574A23F001031367554B1B6F06
:10314000544A23F0040313677B689B68002B15D057
:10315000FFF7A0FB38610AE0FFF79CFB02463B69E2
:10316000D31A41F28832934201D90323CBE0494B71
:103170001B6F03F00203002BEED014E0FFF78AFB75
:1031800038610AE0FFF786FB02463B69D31A41F239
:103190008832934201D90323B5E03E4B1B6F03F005
:1031A0000203002BEED1FB7D012B05D1394B1B6CAB
:1031B000384A23F0805313647B689B69002B00F02E
:1031C000A180344B9B6803F00C03082B5CD07B6818
:1031D0009B69022B41D1314B00221A60FFF75AFB49
:1031E000386108E0FFF756FB02463B69D31A022B11
:1031F00001D9032387E0274B1B6803F00073002BE2
:10320000F0D17B68DA697B681B6A1A437B685B6A6A
:103210009B011A437B689B6A5B08013B1B041A43B2
:103220007B68DB6A1B061B4913434B601B4B012267
:103230001A60FFF72FFB386108E0FFF72BFB02460F
:103240003B69D31A022B01D903235CE0114B1B68A5
:1032500003F00073002BF0D054E0104B00221A60F2
:10326000FFF718FB386108E0FFF714FB02463B69E3
:10327000D31A022B01D9032345E0064B1B6803F048
:103280000073002BF0D13DE07B689B69012B07D1D7
:10329000012338E0003802400070004060004742DF
:1032A0001B4B5B68FB607B689B69012B28D0FB682C
:1032B00003F480027B68DB699A4221D1FB6803F04A
:1032C0003F027B681B6A9A421AD1FA6847F6C073BC
:1032D00013407A68526A9201934211D1FB6803F459
:1032E00040327B689B6A5B08013B1B049A4207D112
:1032F000FB6803F070627B68DB6A1B069A4201D0B0
:10330000012300E0002318461837BD4680BD00BFEA
:103310000038024080B584B000AF786039607B68C7
:10332000002B01D10123CCE0684B1B6803F007039D
:103330003A689A420CD9654B3A68D2B21A70634B1C
:103340001B6803F007033A689A4201D00123B8E0F2
:103350007B681B6803F00203002B20D07B681B688E
:1033600003F00403002B05D0594B9B68584A43F4E3
:10337000E05393607B681B6803F00803002B05D0C3
:10338000534B9B68524A43F460439360504B9B6895
:1033900023F0F0027B689B684D4913438B607B6888
:1033A0001B6803F00103002B44D07B685B68012B92
:1033B00007D1474B1B6803F40033002B19D10123BD
:1033C0007FE07B685B68022B03D07B685B68032B24
:1033D00007D13F4B1B6803F00073002B09D1012379
:1033E0006FE03B4B1B6803F00203002B01D101236C
:1033F00067E0374B9B6823F003027B685B683449C6
:1034000013438B60FFF746FAF8600AE0FFF742FAD1
:103410000246FB68D31A41F28832934201D9032352
:103420004FE02B4B9B6803F00C027B685B689B00B2
:103430009A42EBD1254B1B6803F007033A689A4286
:103440000CD2224B3A68D2B21A70204B1B6803F0A0
:1034500007033A689A4201D0012332E07B681B6877
:1034600003F00403002B08D0194B9B6823F4E052AF
:103470007B68DB68164913438B607B681B6803F02D
:103480000803002B09D0124B9B6823F460427B6831
:103490001B69DB000E4913438B6000F021F80246E4
:1034A0000B4B9B681B0903F00F030A49CB5C22FA04
:1034B00003F3094A1360094B1B681846FEF73AFFED
:1034C000002318461037BD4680BD00BF003C0240B7
:1034D00000380240207F00081C000020200000204F
:1034E0002DE9B04F90B000AF00237B630023FB6356
:1034F00000233B630023BB63594B9B6803F00C0321
:10350000082B0DD0082B00F2A180002B02D0042B39
:1035100003D09BE0534BBB639BE0534BBB6398E0F2
:103520004F4B5B6803F03F037B634D4B5B6803F4D9
:103530008003002B28D04A4B5B689B0900223B622A
:103540007A623B6AC3F308000021474B03FB01F298
:10355000002300FB03F31344434AA0FB0212FA6268
:103560000A46BA62FA6A1344FB627B6B0022BB61B3
:10357000FA61D7E90623D7E90A01FDF71DFB0246E8
:103580000B461346FB6353E0354B5B689B090022F7
:103590003B617A613B69C3F3080A4FF0000B524666
:1035A0005B464FF000004FF00001590141EAD26143
:1035B000500102460B46B2EB0A0863EB0B094FF0D1
:1035C00000024FF000034FEA891343EA98634FEA81
:1035D0008812B2EB080463EB09054FF000024FF0CC
:1035E0000003EB0043EA5473E20014461D4614EB5B
:1035F0000A033B6045EB0B037B604FF000024FF08A
:103600000003D7E9004529468B02214643EA91533E
:1036100021468A02104619467B6B0022BB60FA6085
:10362000D7E90223FDF7C8FA02460B461346FB63AF
:103630000B4B5B681B0C03F0030301335B003B6324
:10364000FA6B3B6BB2FBF3F3BB6302E0054BBB636E
:1036500000BFBB6B18464037BD46BDE8B08F00BF0A
:10366000003802400024F40040787D0180B400AFAF
:10367000034B1B681846BD465DF8047B704700BFCE
:103680001C00002080B500AFFFF7F0FF0246054B9D
:103690009B689B0A03F007030349CB5C22FA03F300
:1036A000184680BD00380240307F000880B500AF6A
:1036B000FFF7DCFF0246054B9B685B0B03F007033B
:1036C0000349CB5C22FA03F3184680BD0038024060
:1036D000307F000880B483B000AF786039607B68C9
:1036E0000F221A60124B9B6803F003027B685A603A
:1036F0000F4B9B6803F0F0027B689A600C4B9B6851
:1037000003F4E0527B68DA60094B9B68DB0803F442
:10371000E0527B681A61074B1B6803F007023B68A5
:103720001A6000BF0C37BD465DF8047B704700BFD0
:1037300000380240003C024080B582B000AF7860A3
:103740007B68002B01D101237BE07B685B6A002B47
:1037500008D17B685B68B3F5827F09D07B68002263
:10376000DA6105E07B6800221A617B6800225A61F9
:103770007B6800229A627B6893F85130DBB2002BA1
:1037800006D17B68002283F850207868FEF762FD3E
:103790007B68022283F851207B681B681A687B686B
:1037A0001B6822F040021A607B685B6803F4827237
:1037B0007B689B6803F404431A437B68DB6803F46B
:1037C00000631A437B681B6903F002031A437B689A
:1037D0005B6903F001031A437B689B6903F4007380
:1037E0001A437B68DB6903F038031A437B681B6A62
:1037F00003F0800342EA03017B689B6A03F40052F2
:103800007B681B680A431A607B689B691B0C03F08A
:1038100004017B685B6A03F010027B681B680A4343
:103820005A607B681B68DA697B681B6822F4006257
:10383000DA617B6800225A657B68012283F8512097
:10384000002318460837BD4680BD80B588B000AF5C
:10385000F860B9603B601346FB800023FB77FB6890
:1038600093F85030012B01D102232DE1FB68012296
:1038700083F85020FFF70EF8B861FB88FB82FB68E5
:1038800093F85130DBB2012B02D00223FB7716E113
:10389000BB68002B02D0FB88002B02D10123FB77F1
:1038A0000DE1FB68032283F85120FB6800225A6572
:1038B000FB68BA681A63FB68FA889A86FB68FA881C
:1038C000DA86FB6800229A63FB6800229A87FB680D
:1038D0000022DA87FB6800225A64FB6800221A641F
:1038E000FB689B68B3F5004F0FD1FB681B681A6833
:1038F000FB681B6822F040021A60FB681B681A68AC
:10390000FB681B6842F480421A60FB681B681B68F6
:1039100003F04003402B07D0FB681B681A68FB6864
:103920001B6842F040021A60FB68DB68B3F5006F69
:103930004FD1FB685B68002B02D0FB8A012B42D180
:10394000FB681B6B1A88FB681B68DA60FB681B6BE3
:103950009A1CFB681A63FB68DB8E9BB2013B9AB230
:10396000FB68DA862FE0FB681B689B6803F00203A4
:10397000022B12D1FB681B6B1A88FB681B68DA608C
:10398000FB681B6B9A1CFB681A63FB68DB8E9BB29F
:10399000013B9AB2FB68DA8615E0FEF77BFF024630
:1039A000BB69D31A3A689A4203D83B68B3F1FF3F28
:1039B00002D13B68002B06D10323FB77FB68012271
:1039C00083F851207BE0FB68DB8E9BB2002BCAD1D1
:1039D00050E0FB685B68002B02D0FB8A012B44D1CE
:1039E000FB681A6BFB681B680C3312781A70FB6853
:1039F0001B6B5A1CFB681A63FB68DB8E9BB2013B96
:103A00009AB2FB68DA8630E0FB681B689B6803F0BB
:103A10000203022B13D1FB681A6BFB681B680C3383
:103A200012781A70FB681B6B5A1CFB681A63FB68E0
:103A3000DB8E9BB2013B9AB2FB68DA8615E0FEF79B
:103A400029FF0246BB69D31A3A689A4203D83B68F9
:103A5000B3F1FF3F02D13B68002B06D10323FB7774
:103A6000FB68012283F8512029E0FB68DB8E9BB2C2
:103A7000002BC9D1BA693968F86800F0DFFB03464A
:103A8000002B02D0FB6820225A65FB689B68002B44
:103A90000AD100233B61FB681B68DB683B61FB6864
:103AA0001B689B683B613B69FB685B6D002B02D028
:103AB0000123FB7703E0FB68012283F85120FB68B8
:103AC000002283F85020FB7F18462037BD4680BD7A
:103AD00080B588B002AFF860B9603B601346FB80E8
:103AE0000023FB75FB6893F85130DBB2012B02D049
:103AF0000223FB75FBE0FB685B68B3F5827F12D1A4
:103B0000FB689B68002B0ED1FB68042283F85120D0
:103B1000FA883B6800931346BA68B968F86800F001
:103B2000EFF80346E8E0FB6893F85030012B01D131
:103B30000223E1E0FB68012283F85020FEF7AAFE91
:103B40003861BB68002B02D0FB88002B02D1012317
:103B5000FB75CCE0FB68042283F85120FB6800224F
:103B60005A65FB68BA689A63FB68FA889A87FB68AB
:103B7000FA88DA87FB6800221A63FB6800229A86BB
:103B8000FB680022DA86FB6800221A64FB680022C8
:103B90005A64FB689B68B3F5004F0FD1FB681B6844
:103BA0001A68FB681B6822F040021A60FB681B68F9
:103BB0001A68FB681B6822F480421A60FB681B6865
:103BC0001B6803F04003402B07D0FB681B681A6892
:103BD000FB681B6842F040021A60FB68DB68002B40
:103BE0006AD132E0FB681B689B6803F00103012B7C
:103BF00015D1FB681B6803F10C02FB689B6B127804
:103C0000D2B21A70FB689B6B5A1CFB689A63FB6804
:103C1000DB8F9BB2013B9AB2FB68DA8715E0FEF7B7
:103C200039FE02463B69D31A3A689A4203D83B6888
:103C3000B3F1FF3F02D13B68002B06D10323FB7594
:103C4000FB68012283F8512051E0FB68DB8F9BB2B7
:103C5000002BC7D135E0FB681B689B6803F00103AC
:103C6000012B13D1FB681B68DA68FB689B6B92B26F
:103C70001A80FB689B6B9A1CFB689A63FB68DB8F5E
:103C80009BB2013B9AB2FB68DA8715E0FEF702FEB1
:103C900002463B69D31A3A689A4203D83B68B3F1AB
:103CA000FF3F02D13B68002B06D10323FB75FB6865
:103CB000012283F851201AE0FB68DB8F9BB2002BB6
:103CC000C9D13A693968F86800F052FA0346002B06
:103CD00002D0FB6820225A65FB685B6D002B02D086
:103CE0000123FB7503E0FB68012283F85120FB6888
:103CF000002283F85020FB7D18461837BD4680BD52
:103D000080B58CB000AFF860B9607A607B80012329
:103D1000FB62002387F82B30FB6893F85030012BAF
:103D200001D1022398E1FB68012283F85020FEF7BD
:103D3000B1FD7862FB6893F8513087F82330FB6857
:103D40005B68FB617B887B8397F82330012B0FD066
:103D5000FB69B3F5827F07D1FB689B68002B03D119
:103D600097F82330042B03D0022387F82B306DE122
:103D7000BB68002B05D07B68002B02D07B88002B12
:103D800003D1012387F82B3060E1FB6893F85130B1
:103D9000DBB2042B03D0FB68052283F85120FB68BB
:103DA00000225A65FB687A689A63FB687A88DA872A
:103DB000FB687A889A87FB68BA681A63FB687A8816
:103DC000DA86FB687A889A86FB6800221A64FB68A8
:103DD00000225A64FB681B681B6803F04003402BF9
:103DE00007D0FB681B681A68FB681B6842F040023A
:103DF0001A60FB68DB68B3F5006F7CD1FB685B6819
:103E0000002B02D07B8B012B6AD1FB681B6B1A88BD
:103E1000FB681B68DA60FB681B6B9A1CFB681A6303
:103E2000FB68DB8E9BB2013B9AB2FB68DA8657E0F7
:103E3000FB681B689B6803F00203022B1BD1FB6825
:103E4000DB8E9BB2002B16D0FB6A012B13D1FB68D3
:103E50001B6B1A88FB681B68DA60FB681B6B9A1C7B
:103E6000FB681A63FB68DB8E9BB2013B9AB2FB686E
:103E7000DA860023FB62FB681B689B6803F0010382
:103E8000012B19D1FB68DB8F9BB2002B14D0FB6890
:103E90001B68DA68FB689B6B92B21A80FB689B6BAD
:103EA0009A1CFB689A63FB68DB8F9BB2013B9AB25A
:103EB000FB68DA870123FB62FEF7ECFC02467B6AB3
:103EC000D31ABA6B9A420BD8BB6BB3F1FF3F07D042
:103ED000032387F82B30FB68012283F85120B5E0DB
:103EE000FB68DB8E9BB2002BA2D1FB68DB8F9BB201
:103EF000002B9DD180E0FB685B68002B02D07B8BA0
:103F0000012B6FD1FB681A6BFB681B680C331278AE
:103F10001A70FB681B6B5A1CFB681A63FB68DB8E0C
:103F20009BB2013B9AB2FB68DA865BE0FB681B68D8
:103F30009B6803F00203022B1CD1FB68DB8E9BB253
:103F4000002B17D0FB6A012B14D1FB681A6BFB689E
:103F50001B680C3312781A70FB681B6B5A1CFB68C9
:103F60001A63FB68DB8E9BB2013B9AB2FB68DA8670
:103F70000023FB62FB681B689B6803F00103012BB5
:103F800019D1FB68DB8F9BB2002B14D0FB681B6838
:103F9000DA68FB689B6BD2B21A70FB689B6B5A1C89
:103FA000FB689A63FB68DB8F9BB2013B9AB2FB68AC
:103FB000DA870123FB62FEF76DFC02467B6AD31AA7
:103FC000BA6B9A4203D8BB6BB3F1FF3F02D1BB6B14
:103FD000002B07D1032387F82B30FB68012283F8DD
:103FE000512033E0FB68DB8E9BB2002B9ED1FB6837
:103FF000DB8F9BB2002B99D17A6AB96BF86800F01D
:104000001DF90346002B06D0012387F82B30FB68EF
:1040100020225A651AE0FB689B68002B0AD1002316
:104020007B61FB681B68DB687B61FB681B689B68C6
:104030007B617B69FB685B6D002B03D0012387F8F4
:104040002B3003E0FB68012283F85120FB6800223B
:1040500083F8502097F82B3018463037BD4680BD86
:1040600080B588B000AFF860B9603B601346FB7163
:10407000FEF710FC0246BB6A9B1A3A681344FB61C8
:10408000FEF708FCB861394B1B685B011B0DFA6930
:1040900002FB03F37B6154E03B68B3F1FF3F50D078
:1040A000FEF7F8FB0246BB69D31AFA699A4202D9B5
:1040B000FB69002B3DD1FB681B685A68FB681B68D5
:1040C00022F0E0025A60FB685B68B3F5827F11D191
:1040D000FB689B68B3F5004F04D0FB689B68B3F5A1
:1040E000806F07D1FB681B681A68FB681B6822F0A9
:1040F00040021A60FB689B6AB3F5005F0FD1FB6852
:104100001B681A68FB681B6822F400521A60FB687F
:104110001B681A68FB681B6842F400521A60FB684F
:10412000012283F85120FB68002283F850200323EA
:1041300017E07B69002B01D10023FB617B69013B08
:104140007B61FB681B689A68BB681340BA689A4237
:104150000CBF01230023DBB21A46FB799A429BD1A4
:10416000002318462037BD4680BD00BF1C0000203C
:1041700080B586B002AFF860B9607A60FB685B68B2
:10418000B3F5827F11D1FB689B68B3F5004F04D073
:10419000FB689B68B3F5806F07D1FB681B681A68E2
:1041A000FB681B6822F040021A60FB685B68B3F58D
:1041B000827F2AD1FB689B68B3F5806F12D07B6841
:1041C0000093BB6800228021F868FFF749FF03468F
:1041D000002B2DD0FB685B6D43F02002FB685A6515
:1041E000032326E07B680093BB6800220121F86866
:1041F000FFF736FF0346002B1AD0FB685B6D43F0D8
:104200002002FB685A65032313E07B680093BB68B8
:1042100000220121F868FFF723FF0346002B07D097
:10422000FB685B6D43F02002FB685A65032300E0E6
:10423000002318461037BD4680BD000080B588B009
:1042400002AFF860B9607A607B680093BB680122B6
:104250000221F868FFF704FF0346002B07D0FB6834
:104260005B6D43F02002FB685A65032332E01B4B71
:104270001B681B4AA2FB03235B0D4FF47A7202FBFF
:1042800003F37B61FB685B68B3F5827F12D17B68C7
:104290000093BB6800228021F868FFF7E1FE034627
:1042A000002B16D0FB685B6D43F02002FB685A655B
:1042B00003230FE07B69002B0AD07B69013B7B6104
:1042C000FB681B689B6803F08003802BF2D000E042
:1042D00000BF002318461837BD4680BD1C000020D3
:1042E000819F5E1680B582B000AF78607B68002B3E
:1042F00001D1012341E07B6893F83D30DBB2002B14
:1043000006D17B68002283F83C20786800F039F8F9
:104310007B68022283F83D207B681A687B6804333F
:104320001946104600F0B2F97B68012283F8462056
:104330007B68012283F83E207B68012283F83F20BE
:104340007B68012283F840207B68012283F84120AA
:104350007B68012283F842207B68012283F8432096
:104360007B68012283F844207B68012283F8452082
:104370007B68012283F83D20002318460837BD469C
:1043800080BD80B483B000AF786000BF0C37BD46FD
:104390005DF8047B7047000080B485B000AF7860A2
:1043A0007B6893F83D30DBB2012B01D0012344E060
:1043B0007B68022283F83D207B681B68DA687B6893
:1043C0001B6842F00102DA607B681B681E4A934258
:1043D00018D07B681B68B3F1804F13D07B681B68D3
:1043E0001A4A93420ED07B681B68194A934209D03F
:1043F0007B681B68174A934204D07B681B68164A87
:10440000934211D17B681B689B6803F00703FB6034
:10441000FB68062B10D07B681B681A687B681B68DA
:1044200042F001021A6007E07B681B681A687B682B
:104430001B6842F001021A60002318461437BD467B
:104440005DF8047B704700BF00000140000400409D
:1044500000080040000C00400040014080B584B0DE
:1044600000AF78607B681B68DB68FB607B681B685B
:104470001B69BB60BB6803F00203002B20D0FB6804
:1044800003F00203002B1BD07B681B686FF0020255
:104490001A617B6801221A777B681B689B6903F0AD
:1044A0000303002B03D0786800F0D2F805E07868A9
:1044B00000F0C4F8786800F0D5F87B6800221A771D
:1044C000BB6803F00403002B20D0FB6803F0040357
:1044D000002B1BD07B681B686FF004021A617B689D
:1044E00002221A777B681B689B6903F44073002BD8
:1044F00003D0786800F0ACF805E0786800F09EF82A
:10450000786800F0AFF87B6800221A77BB6803F088
:104510000803002B20D0FB6803F00803002B1BD0FE
:104520007B681B686FF008021A617B6804221A77A7
:104530007B681B68DB6903F00303002B03D07868FA
:1045400000F086F805E0786800F078F8786800F008
:1045500089F87B6800221A77BB6803F01003002BF0
:1045600020D0FB6803F01003002B1BD07B681B6876
:104570006FF010021A617B6808221A777B681B684B
:10458000DB6903F44073002B03D0786800F060F817
:1045900005E0786800F052F8786800F063F87B680E
:1045A00000221A77BB6803F00103002B0CD0FB68D4
:1045B00003F00103002B07D07B681B686FF001023A
:1045C0001A617868FDF704FBBB6803F08003002BD9
:1045D0000CD0FB6803F08003002B07D07B681B68BE
:1045E0006FF080021A61786800F0E6F8BB6803F0AB
:1045F0004003002B0CD0FB6803F04003002B07D0D6
:104600007B681B686FF040021A61786800F034F82C
:10461000BB6803F02003002B0CD0FB6803F02003E1
:10462000002B07D07B681B686FF020021A61786846
:1046300000F0B8F800BF1037BD4680BD80B483B02D
:1046400000AF786000BF0C37BD465DF8047B704753
:1046500080B483B000AF786000BF0C37BD465DF812
:10466000047B704780B483B000AF786000BF0C3724
:10467000BD465DF8047B704780B483B000AF7860BE
:1046800000BF0C37BD465DF8047B704780B485B031
:1046900000AF786039607B681B68FB607B683A4AD2
:1046A00093420FD07B68B3F1804F0BD07B68374AC1
:1046B000934207D07B68364A934203D07B68354AE1
:1046C000934208D1FB6823F07003FB603B685B6892
:1046D000FA681343FB607B682B4A93421BD07B68CC
:1046E000B3F1804F17D07B68284A934213D07B6880
:1046F000274A93420FD07B68264A93420BD07B68AF
:10470000254A934207D07B68244A934203D07B68B2
:10471000234A934208D1FB6823F44073FB603B6853
:10472000DB68FA681343FB60FB6823F080023B6898
:104730005B691343FB607B68FA681A603B689A68A0
:104740007B68DA623B681A687B689A627B680E4A0B
:10475000934203D13B681A697B681A637B68012224
:104760005A617B681B6903F00103012B05D17B684B
:104770001B6923F001027B681A6100BF1437BD4634
:104780005DF8047B704700BF00000140000400405A
:1047900000080040000C004000400140004401407F
:1047A0000048014080B483B000AF786000BF0C3790
:1047B000BD465DF8047B704780B483B000AF78607D
:1047C00000BF0C37BD465DF8047B704780B582B0F2
:1047D00000AF78607B68002B01D1012342E07B6849
:1047E00093F84130DBB2002B06D17B68002283F8BE
:1047F00040207868FDF772FF7B68242283F841200F
:104800007B681B68DA687B681B6822F40052DA60F8
:10481000786800F061FA7B681B681A697B681B681E
:1048200022F490421A617B681B685A697B681B6896
:1048300022F02A025A617B681B68DA687B681B6871
:1048400042F40052DA607B6800225A647B682022BE
:1048500083F841207B68202283F842207B68002275
:104860005A63002318460837BD4680BD80B582B024
:1048700000AF78607B68002B01D101234AE07B68A0
:1048800093F84130DBB2002B06D17B68002283F81D
:1048900040207868FDF722FF7B68242283F84120BE
:1048A0007B681B68DA687B681B6822F40052DA6058
:1048B000786800F011FA7B681B681A697B681B68CE
:1048C00022F490421A617B681B685A697B681B68F6
:1048D00022F022025A617B681B685A697B681B6858
:1048E00042F008025A617B681B68DA687B681B68C3
:1048F00042F40052DA607B6800225A647B6820220E
:1049000083F841207B68202283F842207B680022C4
:104910005A63002318460837BD4680BD80B58AB06B
:1049200002AFF860B9603B601346FB8000237B61F7
:10493000FB6893F84130DBB2202B75D1BB68002BAC
:1049400002D0FB88002B01D101236EE0FB6800221E
:104950005A64FB68212283F84120FDF79BFF7861B0
:10496000FB68FA889A84FB68FA88DA84FB689B689B
:10497000B3F5805F08D1FB681B69002B04D10023CD
:10498000FB61BB68BB6103E0BB68FB610023BB61EB
:104990002EE03B6800937B6900228021F86800F0DC
:1049A000DFF80346002B05D0FB68202283F8412066
:1049B00003233AE0FB69002B0BD1BB691B881A4625
:1049C000FB681B68C2F308025A60BB690233BB6113
:1049D00007E0FB691A78FB681B685A60FB690133C2
:1049E000FB61FB68DB8C9BB2013B9AB2FB68DA840B
:1049F000FB68DB8C9BB2002BCBD13B6800937B69BF
:104A000000224021F86800F0ABF80346002B05D0E7
:104A1000FB68202283F84120032306E0FB68202264
:104A200083F84120002300E0022318462037BD46CA
:104A300080BD80B58AB002AFF860B9603B601346B4
:104A4000FB8000237B61FB6893F84230DBB2202BB4
:104A500040F08180BB68002B02D0FB88002B01D185
:104A6000012379E0FB6800225A64FB68222283F864
:104A70004220FB6800221A63FDF70CFF7861FB6897
:104A8000FA889A85FB68FA88DA85FB689B68B3F533
:104A9000805F08D1FB681B69002B04D10023FB61F8
:104AA000BB68BB6103E0BB68FB610023BB6147E0FF
:104AB0003B6800937B6900222021F86800F050F8E1
:104AC0000346002B05D0FB68202283F842200323F5
:104AD00042E0FB69002B0CD1FB681B685B689BB252
:104AE000C3F308039AB2BB691A80BB690233BB6186
:104AF0001FE0FB689B68B3F5805F07D0FB689B688D
:104B0000002B0AD1FB681B69002B06D1FB681B68D0
:104B10005B68DAB2FB691A7008E0FB681B685B68C7
:104B2000DBB203F07F03DAB2FB691A70FB69013371
:104B3000FB61FB68DB8D9BB2013B9AB2FB68DA85B7
:104B4000FB68DB8D9BB2002BB2D1FB68202283F87F
:104B50004220002300E0022318462037BD4680BDD6
:104B600080B586B000AFF860B9603B601346FB715A
:104B70003BE03B6AB3F1FF3F37D0FDF78BFE0246C7
:104B80003B68D31A3A6A9A4202D33B6A002B01D19E
:104B900003233AE0FB681B68DB6803F00403002B87
:104BA00023D0BB68802B20D0BB68402B1DD0FB6876
:104BB0001B681B6803F00803082B16D100237B61D8
:104BC000FB681B681B687B61FB681B685B687B611B
:104BD0007B69F86800F01DF8FB6808225A64FB68DE
:104BE000002283F8402001230FE0FB681B681A684D
:104BF000BB681340BA689A420CBF01230023DBB2A2
:104C00001A46FB799A42B4D0002318461837BD469D
:104C100080BD80B495B000AF78607B681B680C33B2
:104C20007B637B6B53E8003F3B633B6B23F49073E8
:104C3000FB647B681B680C33FA6C3A64FB63F96BAA
:104C40003A6C41E80023BB63BB6B002BE5D17B686A
:104C50001B6814333B623B6A53E8003FFB61FB690E
:104C600023F00103BB647B681B681433BA6CFA62DF
:104C7000BB62B96AFA6A41E800237B627B6A002B57
:104C8000E5D17B681B6B012B19D17B681B680C334A
:104C9000FB60FB6853E8003FBB60BB6823F0100378
:104CA0007B647B681B680C337A6CBA617B617969C1
:104CB000BA6941E800233B613B69002BE5D17B6881
:104CC000202283F842207B6800221A6300BF5437F9
:104CD000BD465DF8047B70472DE9B04FC0B000AF12
:104CE000C7F8F400D7F8F4301B681B6923F4405070
:104CF000D7F8F430D968D7F8F4301A6840EA0103DD
:104D00001361D7F8F4309A68D7F8F4301B691A4366
:104D1000D7F8F4305B691A43D7F8F430DB691343F2
:104D2000C7F8F830D7F8F4301B68DB6823F4164175
:104D300021F00C01D7F8F4301A68D7F8F8300B439B
:104D4000D360D7F8F4301B685B6923F44070D7F860
:104D5000F4309969D7F8F4301A6840EA01035361D6
:104D6000D7F8F4301A688F4B9A4205D0D7F8F43050
:104D70001A688D4B9A4204D1FEF798FCC7F8FC00E4
:104D800003E0FEF77FFCC7F8FC00D7F8F430DB69DE
:104D9000B3F5004F40F00C81D7F8FC300022C7F883
:104DA000E830C7F8EC20D7E93A4522462B4691185F
:104DB000B9655B41FB65D7E91623214612EB010873
:104DC000294643EB01094FF000024FF000034FEA80
:104DD000C90343EA58734FEAC802904699462346EE
:104DE00018EB0303C7F8E0302B4649EB0303C7F881
:104DF000E430D7F8F4305B680022C7F8D830C7F841
:104E0000DC20D7E936120B46DB183B65134642EB34
:104E100003037B65D7E91423D7E93801FBF7CCFE00
:104E200002460B46614BA3FB02235B091C01D7F82A
:104E3000FC300022C7F8D030C7F8D420D7E9348935
:104E400042464B469118B9645B41FB64D7E9122393
:104E5000414612EB010A494643EB010B4FF00002B9
:104E60004FF000034FEACB0343EA5A734FEACA02FA
:104E700092469B4643461AEB0303C7F8C8304B469D
:104E80004BEB0303C7F8CC30D7F8F4305B68002253
:104E9000C7F8C030C7F8C420D7E930120B46DB187A
:104EA0003B64134642EB03037B64D7E91023D7E945
:104EB0003201FBF781FE02460B4611463B4BA3FB3A
:104EC00001235B09642202FB03F3CB1ADB0003F12D
:104ED0003202364BA3FB02235B095B0003F4F87339
:104EE0001C44D7F8FC300022C7F8B830C7F8BC2003
:104EF000D7E92E8942464B469118B9635B41FB6363
:104F0000D7E90E2341465118396349464B417B632B
:104F10004FF000024FF00003D7E90CAB5946CB002D
:104F2000514643EA51735146CA001046194603469A
:104F300042469B18C7F8B0304B460A4642EB030383
:104F4000C7F8B430D7F8F4305B680022C7F8A8304F
:104F5000C7F8AC20D7E92A120B46DB18BB62134610
:104F600042EB0303FB62D7E90A23D7E92C01FBF7E5
:104F700023FE02460B460D4BA3FB02135B09642183
:104F800001FB03F3D31ADB003233084AA2FB0323ED
:104F90005B0903F00702D7F8F4301B6822449A60DB
:104FA00006E100BF00100140001401401F85EB51D5
:104FB000D7F8FC300022C7F8A030C7F8A420D7E902
:104FC000288942464B46911839625B417B62D7E99A
:104FD000082341465418494643EB01054FF00002AF
:104FE0004FF00003EB0043EA5473E20014461D4601
:104FF0004346E318C7F898304B4645EB0303C7F820
:105000009C30D7F8F4305B680022C7F89030C7F8BE
:1050100094204FF000024FF00003D7E924452946C1
:105020008B00214643EA917321468A00D7E9260185
:10503000FBF7C2FD02460B46604BA3FB02235B0954
:105040001C01D7F8FC300022C7F88830C7F88C2044
:10505000D7E9228942464B469118B9615B41FB6111
:10506000D7E9062341465118396149464B417B61D6
:105070004FF000024FF00003D7E904AB5946CB00D4
:10508000514643EA51735146CA0010461946034639
:1050900042469B18C7F880304B460A4642EB030352
:1050A000C7F88430D7F8F4305B680022BB67FA6732
:1050B0004FF000024FF00003D7E91E8949468B00EC
:1050C000414643EA917341468A00D7E92001FBF744
:1050D00073FD02460B461146384BA3FB01235B09C7
:1050E000642202FB03F3CB1A1B013233334AA2FBC7
:1050F00003235B0903F0F0031C44D7F8FC300022C3
:105100003B677A67D7E91C8942464B469118B960DC
:105110005B41FB60D7E9022341465118396049469B
:105120004B417B604FF000024FF00003D7E900AB2A
:105130005946CB00514643EA51735146CA001046C6
:105140001946034642469B18BB664B460A4642EB4D
:105150000303FB66D7F8F4305B6800223B667A668F
:105160004FF000024FF00003D7E9188949468B0041
:10517000414643EA917341468A00D7E91A01FBF799
:105180001BFD02460B460D4BA3FB02135B0964217A
:1051900001FB03F3D31A1B013233084AA2FB03239A
:1051A0005B0903F00F02D7F8F4301B6822449A60C1
:1051B00000BF07F58077BD46BDE8B08F1F85EB5176
:1051C0002DE9FF4755EC104B002D0E4619462B4696
:1051D000BBBF05F100431D4600232D230B700D9B23
:1051E000DDF830A0914623F02008BCBF22461446CB
:1051F000B8F1460F05D0B8F1450F00D101360221B4
:1052000000E0032103AB019302AB009345EC104B8C
:105210005346324600F078FEB8F1470F074602D1F8
:1052200019F0010F22D0B8F1460F07EB060910D193
:105230003B78302B0AD10022002320462946FBF779
:105240004BFC18B9C6F10106CAF80060DAF8003064
:1052500099440022002320462946FBF73DFC08B173
:10526000CDF80C903022039B4B4507D3039B0E9A3D
:10527000DB1B3846136004B0BDE8F087591C03916E
:105280001A70F0E7F7B503460029B8BF494203F8A2
:10529000022BB4BF2D222B22092942702ADD0DF1E9
:1052A000070217460A26944691FBF6F506FB1514ED
:1052B00030340CF8014C0C46632C02F1FF322946C5
:1052C000F1DC3031ACF1020402F8011C411C224631
:1052D000BA420AD30DF10902A2EB0C02BC4288BF0C
:1052E00000221344181A03B0F0BD12F8015B01F854
:1052F000015FEDE7302330318370C170031DF1E7AA
:105300002DE9F04F2DED028B8DB00C46DDF860805D
:1053100016461F46054600F0F5FCD0F800A05046A2
:10532000FAF7AEFF00230A9323680593D8F80030FC
:1053300094F818B0073323F0070303F10802C8F804
:105340000020D3E9008929F000430793CDF81880A5
:1053500008EE100AC4E91289DDE906019E4B4FF000
:10536000FF32FBF7EBFB88BBDDE906019A4B4FF000
:10537000FF32FBF7C5FB48BB0022002340464946ED
:10538000FBF7B4FB10B12D2384F84330934A944BC0
:10539000BBF1470F94BF9046984603232361059BBA
:1053A00023F0040323604FF00009009733460BAA53
:1053B0002146284600F0DAF9013040F090804FF0A5
:1053C000FF300DB0BDEC028BBDE8F08F42464B467E
:1053D00040464946FBF7B2FB40B14B46002BBCBFF1
:1053E0002D2384F843307F4A7F4BD1E763680BF06D
:1053F000DF0206925A1C3FD106236360059B616859
:1054000043F48062002303930AABCDE901B309ABF7
:1054100049EC108B009322600DF123032846FFF71F
:10542000CFFE069B0999472B804608D1C81C02DB9A
:105430006368994241DDABF102035FFA83FBBBF184
:10544000650F20D801395A4604F150000991FFF741
:1054500019FF0A9A1318012A8146236102DC226887
:10546000D20701D5013323619DF82330002B9CD056
:105470002D2384F8433098E7069A472ABED1002BA3
:10548000BCD10123B9E7BBF1660F18D100296368CD
:105490000BDD216113B92268D00702D501330B441B
:1054A0002361A1654FF00009DEE713B92268D20736
:1054B00001D50233F4E70123F2E74FF0670B0A9BB3
:1054C000994205DB23682161D807EAD54B1CE7E741
:1054D0000029D4BFC1F1020201221344E0E723688E
:1054E0005A0507D42369424631462846B847013059
:1054F0002CD164E7BBF1650F40F2E080D4E91201E2
:1055000000220023FBF7E8FA002834D0374A0123B1
:1055100031462846B84701303FF451AFDDE9092351
:105520009A4202DB2368D80710D518EE103A52468B
:1055300031462846B84701303FF441AF4FF00008EC
:1055400004F11A090A9B013B434509DC23689B07C8
:1055500000F10781E0680B9B9842B8BF184630E71E
:1055600001234A4631462846B84701303FF427AF69
:1055700008F10108E6E7099B002B39DC1B4A0123EF
:1055800031462846B84701303FF419AFDDE909320A
:10559000134302D12368D907D8D518EE103A5246E2
:1055A00031462846B84701303FF409AF4FF00009B3
:1055B00004F11A0A099B5B424B4501DC0A9B92E706
:1055C0000123524631462846B84701303FF4F7AE32
:1055D00009F10109EEE700BFFFFFEF7F387F000808
:1055E0003C7F0008407F0008447F0008487F000897
:1055F0000A9AA36D9A42A8BF1A46002A914637DC40
:105600004FF0000B29EAE97904F11A02A36D059322
:10561000A3EB09035B4533DCDDE909239A423BDB5D
:105620002368DA0738D4DDE90932A2EB0309059BC8
:10563000D21A9145A8BF9146B9F1000F35DC4FF061
:10564000000829EAE97904F11A0ADDE909239B1A1D
:10565000A3EB090343457FF779AF01235246314657
:105660002846B84701303FF4AAAE08F10108ECE73C
:105670001346314642462846B8470130C0D19EE61F
:105680000123314628460592B84701303FF497AED2
:10569000059A0BF1010BB9E718EE103A5246314664
:1056A0002846B8470130BED189E6059A4B464244A8
:1056B00031462846B8470130C1D180E60A9A012A0E
:1056C00001DCDB073AD50123424631462846B8477C
:1056D00001303FF474AE18EE103A52463146284677
:1056E000B84701303FF46BAED4E912010022002329
:1056F000DDF828A0FBF7F0F9D8B90AF1FF3308F17B
:10570000010231462846B84701300ED157E6012341
:10571000524631462846B84701303FF450AE08F1B2
:1057200001080A9B013B4345F1DC4B4604F1500262
:10573000DAE64FF0000804F11A0AF2E701234246C4
:10574000DFE701234A4631462846B84701303FF497
:1057500036AE08F10108E3680B995B1A4345F0DCAB
:10576000F8E64FF0000804F11909F4E72DE9F047D5
:10577000164699468A680B69DDF820809342B8BFC7
:105780001346336091F8432007460C460AB10133B3
:1057900033602368990642BF33680233336025685B
:1057A00015F0060506D104F1190AE36832689B1A60
:1057B000AB4226DC94F84320131E226818BF012355
:1057C00092062BD404F1430249463846C0470130C3
:1057D0001ED02368226903F00603042B02BFE5688C
:1057E0003368ED1AA3680CBF25EAE57500259342DE
:1057F000C4BF9B1AED1800261A34B5421AD10020F6
:1058000008E00123524649463846C047013003D1DB
:105810004FF0FF30BDE8F0870135C6E7E1185A1CAC
:10582000302081F84300224494F8451082F8431058
:105830000233C7E70123224649463846C0470130B4
:10584000E6D00136D9E700002DE9FF470F7E0C9D19
:10585000782F914680460C469A4601F1430207D8BC
:10586000622F0AD8002F00F0D480582F00F0C0809B
:1058700004F1420584F842703AE0A7F16303152B66
:10588000F6D801A151F823F0E1580008F5580008B6
:1058900071580008715800087158000871580008C4
:1058A000F558000871580008715800087158000830
:1058B00071580008F959000821590008B359000827
:1058C00071580008715800081B5A000871580008E8
:1058D000215900087158000871580008BB59000888
:1058E0002B681A1D1B682A6004F1420584F84230B7
:1058F00001239FE020682B68070603F1040129605B
:1059000001D51E6803E04606FBD5B3F90060002E02
:1059100003DA2D23764284F843305A480A2312E0F2
:105920002B682068191D2960050601D51E6802E054
:105930004106FBD51E8853486F2F0CBF08230A234E
:10594000002184F843106568A560002DA2BF21687E
:1059500021F0040121600EB9002D4BD01546B6FB95
:10596000F3F103FB1167C75D05F8017D3746BB42C4
:105970000E46F4D9082B0BD12368DE0708D523691E
:1059800061689942DEBF302305F8013C05F1FF351F
:10599000521B2261CDF800A04B4603AA2146404687
:1059A000FFF7E4FE01304AD14FF0FF3004B0BDE80C
:1059B000F087236843F0200323603348782784F876
:1059C0004570236829681F0651F8046B02D45F06EE
:1059D00048BFB6B2DF0748BF43F02003296048BF85
:1059E00023601EB9236823F0200323601023A7E758
:1059F0002448E4E71546BDE72B6826686169181D51
:105A0000286035061B6801D5196002E07006FBD5D9
:105A10001980002323611546BCE72B681A1D2A60F4
:105A20001D68626800212846FAF7DAFB08B1401BBE
:105A3000606063682361002384F84330AAE7236928
:105A40002A4649464046D0470130ADD023689B07DF
:105A500013D4E068039B9842B8BF1846A6E7012319
:105A6000324649464046D04701309DD00135E36873
:105A700003995B1AAB42F2DCEBE7002504F119064F
:105A8000F5E700BF4A7F00085B7F0008002310B5E0
:105A90000446C0E90033C0E9043383608181436672
:105AA000C2818361194608225C3000F014F90D4B65
:105AB00063620D4BA3620D4BE3620D4B23630D4BF1
:105AC00024629C4206D003F16802944202D0D03393
:105AD0009C4205D104F15800BDE8104000F086B9A1
